:1000000007C1000033C1000031C100002FC1000052
:100010002DC100002BC1000029C1000027C1000034
:1000200025C1000023C1000021C100001FC1000044
:100030001DC100001BC1000019C1000017C1000054
:1000400015C1000013C1000011C100000FC1000064
:100050000DC100000BC1000009C10000D1C30000A8
:1000600005C1000097C300006CC30000FFC0000082
:10007000FDC00000FBC00000F9C00000F7C0000098
:10008000F5C00000F3C00000F1C00000EFC00000A8
:10009000EDC00000EBC00000E9C00000E7C00000B8
:1000A000E5C00000E3C00000E1C00000DFC00000C8
:1000B000DDC00000DBC00000D9C00000D7C00000D8
:1000C000D5C00000D3C00000D1C00000CFC00000E8
:1000D000CDC00000CBC00000C9C00000C7C00000F8
:1000E000C5C000001A031D030C03100314035403BE
:1000F000210325032B032F03330339033D0341035E
:10010000540347034B034F0300000A0B02090C0D75
:100110000E080703040100000000000000000000BA
:1001200000000000000000000000000000000000CF
:10013000000000001211100000000000000000008C
:1001400000000000000000000000000000000000AF
:100150002200250028002B002E003100340002016F
:100160000000050108010B01000021002400270008
:100170002A002D00300033000101000004010701B6
:100180000A0105050505070508080808020202021C
:100190000A0A080804040404010101010101010123
:1001A0000303030303030303040707070C0C0C0CEE
:1001B0000C0C0C0C020202020606060606060606D7
:1001C0000B0B0B0B0B0B0B0B010210202008081064
:1001D00020401020408002010201080402010102B7
:1001E0000408102040808040201008040201800490
:1001F00002018040201008040201080402010102EB
:1002000004081020408001020408102040804A04A5
:1002100011241FBECFEFD1E2DEBFCDBF00E00CBF87
:1002200023E0ACE2B2E001C01D92A832B207E1F7D0
:1002300012E0A0E0B2E0E8EFFAE000E00BBF02C09D
:1002400007900D92AC32B107D9F711E0C8E0D1E0C8
:1002500000E005C021970109802FFE013FD4C7307F
:10026000D10780E00807B1F764D344C4C9CEE7E3FF
:10027000F2E0A089B18982E08C93A485B5851C92B7
:10028000A685B78580E18C93108EA489B58986E018
:100290008C93A289B3898C9180618C93A289B38954
:1002A0008C9188608C93A289B3898C9180688C939F
:1002B0000288F389E02D80818F7D8083089590E00E
:1002C000FC01E853FE4F2491FC01EE57FE4F849150
:1002D000882399F090E0880F991FFC01E859FE4FA0
:1002E000A591B491FC01E25BFE4F859194918FB78B
:1002F000F894EC91E22BEC938FBF0895CF92DF92AC
:10030000EF92FF920F931F932FB7F894C090330290
:10031000D0903402E0903502F09036022FBFDC011D
:10032000CB018C0D9D1DAE1DBF1D4FB7F8940091E4
:1003300033021091340220913502309136024FBFC2
:100340000C151D052E053F0528F080179107A20703
:10035000B30758F71F910F91FF90EF90DF90CF9068
:100360000895CF92DF92EF92FF920F931F93CF9356
:10037000DF936C017A018B01C0E0D0E0CE15DF0580
:1003800081F0D8016D918D01D601ED91FC91019024
:10039000F081E02DC6011995892B11F02196EECF41
:1003A0007E01C701DF91CF911F910F91FF90EF90D8
:1003B000DF90CF900895089580E090E00895FC01CB
:1003C000538D448D252F30E0842F90E0821B930BBA
:1003D000541710F0CF96089501970895FC01918D60
:1003E000828D981761F0828DDF01A80FB11D5D9697
:1003F0008C91928D9F5F9F73928F90E008958FEF05
:100400009FEF0895FC01918D828D981731F0828DB8
:10041000E80FF11D858D90E008958FEF9FEF08950F
:10042000FC01918D228D892F90E0805C9F4F821B73
:1004300091098F739927089587E392E0F1DF21E016
:10044000892B09F420E0822F0895FC01848DDF01BF
:10045000A80FB11DA35ABF4F2C91848D90E0019637
:100460008F739927848FA689B7892C93A089B18926
:100470008C91837080648C93938D848D981306C0C7
:100480000288F389E02D80818F7D80830895EF922B
:10049000FF920F931F93CF93DF93EC0181E0888F3E
:1004A0009B8D8C8D981305C0E889F989808185FD25
:1004B00025C0F62E0B8D10E00F5F1F4F0F73112715
:1004C000E02E8C8DE8120BC00FB607FCFACFE8893E
:1004D000F989808185FFF5CFCE01B7DFF2CF8B8D13
:1004E000FE01E80FF11DE35AFF4FF0829FB7F89429
:1004F0000B8FEA89FB89808180620AC09FB7F894DC
:10050000EE89FF896083E889F9898081837080643E
:1005100080839FBF81E090E0DF91CF911F910F9189
:10052000FF90EF900895CF93DF93EC01888D88239F
:10053000C1F0EA89FB89808185FD05C0A889B98958
:100540008C9186FD0EC00FB607FCF5CF808185FF2C
:10055000F2CFA889B9898C9185FFEDCFCE0175DFE7
:10056000E8CFDF91CF91089580E090E0892B19F0DA
:1005700063DF811125C080E090E0892B41F080E0AD
:1005800090E0892B21F00E94000081111CC080E0C6
:1005900090E0892B41F080E090E0892B21F00E94CF
:1005A0000000811113C080E090E0892BA1F080E071
:1005B00090E0892B81F00E94000081110AC008950B
:1005C0000E940000D8CF0E940000E1CF0E940000EE
:1005D000EACF0C9400000895362F90E0FC01E85F0C
:1005E000FE4F4491FC01E853FE4F2491FC01EE576D
:1005F000FE4F9491992309F46BC0442309F454C02D
:1006000050E0FA013197E231F10508F04DC088273A
:10061000EE58FF4F8F4F62C2809180008F7707C0E6
:10062000809180008F7D03C080918000877F8093C0
:1006300080003AC084B58F7702C084B58F7D84BDB9
:1006400033C08091B0008F7703C08091B0008F7D60
:100650008093B00029C0809190008F7707C080916F
:1006600090008F7D03C080919000877F80939000E1
:100670001BC08091A0008F7707C08091A0008F7D64
:1006800003C08091A000877F8093A0000DC080915F
:1006900020018F7707C0809120018F7D03C080915A
:1006A0002001877F80932001E92FF0E0EE0FFF1FEC
:1006B000E25BFE4FA591B4919FB7F894311104C04D
:1006C0008C912095282302C0EC912E2B2C939FBF58
:1006D0000895CF93DF93EC01653614F064E603C010
:1006E0006C390CF46CE98B81811161956A83662306
:1006F00011F02CF061E08C816FDF60E004C060E0FD
:100700008C816ADF61E08D81DF91CF9165CFCF93DE
:10071000DF93EC018C81D3DD8D81DF91CF91CFCD43
:1007200087E392E05BDE803329F0813329F0823366
:1007300029F0089580E0089581E008958FEF0895ED
:10074000D5D11F920F920FB60F9211240BB60F92B4
:100750002F933F934F935F936F937F938F939F93C9
:10076000AF93BF93EF93FF9387E392E06EDEFF9129
:10077000EF91BF91AF919F918F917F916F915F9119
:100780004F913F912F910F900BBE0F900FBE0F9086
:100790001F9018951F920F920FB60F9211240BB64F
:1007A0000F922F938F939F93EF93FF93E0914702C4
:1007B000F09148028081E0914D02F0914E0282FD5D
:1007C00012C09081809150028F5F8F7320915102EF
:1007D000821751F0E0915002F0E0E95CFD4F958FF7
:1007E0008093500201C08081FF91EF919F918F9182
:1007F0002F910F900BBE0F900FBE0F901F9018956A
:100800001F920F920FB60F9211242F933F938F9345
:100810009F93AF93BF938091330290913402A09144
:100820003502B09136023091300223E0230F2D378C
:1008300020F40196A11DB11D05C026E8230F0296E4
:10084000A11DB11D20933002809333029093340296
:10085000A0933502B093360280912C0290912D0224
:10086000A0912E02B0912F020196A11DB11D80937F
:100870002C0290932D02A0932E02B0932F02BF91D1
:10088000AF919F918F913F912F910F900FBE0F903D
:100890001F901895E7E3F2E01382128288EE93E04E
:1008A000A0E0B0E084839583A683B78384E092E0E0
:1008B0009183808385EC90E09587848784EC90E039
:1008C0009787868780EC90E0918B808B81EC90E01D
:1008D000938B828B82EC90E0958B848B86EC90E0FE
:1008E000978B868B118E128E138E148EE4EDF2E0B0
:1008F0001682178210861186128613861486158634
:1009000016861786108A118A128A138A148A158A03
:10091000ECE1F3E086E192E09183808325E025839A
:1009200024E024839783868387E0838786E0828719
:100930000895789484B5826084BD84B5816084BD57
:1009400085B5826085BD85B5816085BD80916E006D
:10095000816080936E00109281008091810082609E
:1009600080938100809181008160809381008091DB
:1009700080008160809380008091B10084608093CA
:10098000B1008091B00081608093B00080919100AF
:1009900082608093910080919100816080939100AA
:1009A000809190008160809390008091A10082608E
:1009B0008093A1008091A10081608093A10080912B
:1009C000A00081608093A0008091210182608093CB
:1009D000210180912101816080932101809120017A
:1009E00081608093200180917A00846080937A00F6
:1009F00080917A00826080937A0080917A00816091
:100A000080937A0080917A00806880937A001092B7
:100A1000C100109218031092190310921A03109239
:100A20001B031092D6021092D7021092D802109295
:100A3000D90268EB7BE080E090E060DC87E392E045
:100A4000909317038093160312DC2FB7F8948091CC
:100A5000330290913402A0913502B09136022FBF3B
:100A60008093D6029093D702A093D802B093D90274
:100A70008091160390911703DC01ED91FC910280A7
:100A8000F381E02D41E150E06AE172E019956AE0FE
:100A900070E080E090E032DC81E08093EA02E7DB06
:100AA0008CE193E034DE82E293E031DE87E392E092
:100AB000B7DC029734F034DE8093320231DE80936B
:100AC0003102C0913102609132028CE193E001DE8B
:100AD0006C2F82E293E0FDDD47DDE8CFEE0FFF1FD4
:100AE000881F8BBF0790F691E02D199481E090E06C
:080AF000F89400C0F894FFCF58
:100AF800000000004702B101DF0193021002EE017D
:100B080002020000000087036903564D4450565FF7
:0C0B1800317C315F564D4450560D0A00F0
:00000001FF
